:100000000C944C000C9469000C9469000C946900E9
:100010000C9469000C9469000C9469000C946900BC
:100020000C9469000C9488010C943C010C946900B8
:100030000C9469000C9461010C9469000C946900A3
:100040000C9469000C9469000C9469000C9469008C
:100050000C9469000C9469000C9469000C9469007C
:100060000C9469000C946900EC00E400DC00D400FE
:10007000CC00F4000401BC00B400AC00A5009E005C
:10008000C400FC000A0206020202FE01FA01F601A7
:10009000F201BD01EE010E0211241FBECFEFD8E028
:1000A000DEBFCDBF11E0A0E0B1E0E0E4F9E002C0C6
:1000B00005900D92AE30B107D9F721E0AEE0B1E086
:1000C00001C01D92A531B207E1F70E9412020C9403
:1000D0009E040C94000020E030E097E0A1E0B0E046
:1000E000E92FE21BAD01022E01C0440F0A94EAF78A
:1000F000482371F04E2F50E0FA013197E730F105B7
:10010000A8F02D9A2F5F3F4F2830310549F7089509
:100110004E2F50E0FA013197E730F10558F02D9855
:100120002F5F3F4F28303105D9F6F1CFEC5CFF4F00
:100130000C946903E55CFF4F0C9469035A982F5F98
:100140003F4F2830310561F6E2CF29982F5F3F4FAE
:100150002830310529F6DBCF2A982F5F3F4F283012
:10016000310509F0BDCFD3CF2B982F5F3F4F2830FB
:10017000310509F0B5CFCBCF2C982F5F3F4F2830FA
:10018000310509F0ADCFC3CF5F982F5F3F4F2830C7
:10019000310509F0A5CFBBCF5A9A2F5F3F4F2830CA
:1001A000310509F09DCFB3CF299A2F5F3F4F2830FB
:1001B000310509F095CFABCF2A9A2F5F3F4F2830FA
:1001C000310509F08DCFA3CF2B9A2F5F3F4F2830F9
:1001D000310509F085CF9BCF2C9A2F5F3F4F2830F8
:1001E000310509F07DCF93CF5F9A2F5F3F4F2830C5
:1001F000310509F075CF8BCF5E982F5F3F4F2830C8
:10020000310509F06DCF83CF5E9A2F5F3F4F2830C5
:10021000310509F065CF7BCF61E040E050E0E1E0DF
:10022000F0E09F01042E01C0220F0A94EAF7282370
:1002300069F04230A9F04330E9F04130C9F05D98EF
:10024000643069F04F5F5F4F6F5FEBCF423071F00A
:10025000433051F0413031F05D9A643099F70895A0
:100260004598F0CF5C9AEECF449A0895459AEACF2C
:100270005C98E8CF449808951F920F920FB60F92A2
:1002800011248F939F93AF93BF938091110190910D
:100290001201A0911301B09114010196A11DB11D8D
:1002A0008093110190931201A0931301B093140154
:1002B000BF91AF919F918F910F900FBE0F901F90A4
:1002C00018951F920F920FB60F9211248F93809161
:1002D00010018F5F8093100180911001803291F4A2
:1002E00081E080930F0180916F008F7D80936F007C
:1002F00080916F008E7F80936F00809181008E7F50
:10030000809381008F910F900FBE0F901F901895D2
:100310001F920F920FB60F9211242F933F934F937A
:100320005F936F937F938F939F93AF93BF93CF937D
:10033000EF93FF93C0910E01C13009F44BC008F454
:1003400045C0C230B1F0C33019F488E00E940C01FE
:10035000E3E0F0E0EC1BF109EF5FFE4FE0818E2F50
:1003600090E08A30910560F4FC01EE5BFF4F0C9445
:10037000690384E00E940C01EBCF80EE0E946B00C9
:1003800080910001C817D1F05E9880910E018330F2
:10039000D1F08F5F80930E01FF91EF91CF91BF91CC
:1003A000AF919F918F917F916F915F914F913F910D
:1003B0002F910F900FBE0F901F9018955E9A80910D
:1003C0000E01833031F710920E01E6CF81E00E94DA
:1003D0000C01BECF82E00E940C01BACF8EEF0E94CA
:1003E0006B00CECF8EEB0E946B00CACF86EB0E94D3
:1003F0006B00C6CF86E60E946B00C2CF82EF0E94E0
:100400006B00BECF8AED0E946B00BACF80E60E94DF
:100410006B00B6CF8CEF0E946B00B2CF86EF0E94CC
:100420006B00AECFCF93DF93CDB7DEB72A970FB671
:10043000F894DEBF0FBECDBF8091C100886180936C
:10044000C1008091C20086608093C2001092C500F6
:1004500080E48093C40090E082E62091C00025FFF4
:10046000FCCF8093C6009F5FE92FF0E0EB5FFE4F6B
:1004700080818111F2CF259A249A239A229A219A77
:10048000529A569A579A559A549A3D9A3C9A809104
:1004900081008068809381008091810080648093D6
:1004A00081008091810081608093810080916F0044
:1004B000806280936F0080916F00816080936F00F5
:1004C0008091B10082608093B1008091B100816021
:1004D0008093B100809170008160809370002098BB
:1004E00078948EEF0E946B0081E00E940C01CE0197
:1004F00001964C01FE013B965F018AE0382E9AE09E
:10050000C92ED12CE12CF12C22E0222E80910F015A
:100510008823E1F360911101709112018091130120
:10052000909114010E9410042EEB3EEB46E55EE331
:100530000E946F030E94E1032B013C0161157105CC
:100540008105910509F489C09B01AC0110E01F5F92
:10055000CA01B901A70196010E944703211531057F
:1005600041055105A1F7153009F48AC008F48BC084
:10057000163009F481C0173009F07AC010920001DA
:10058000F401832D11928A95E9F78401C301B20128
:10059000A70196010E944703F80161938F01B901F9
:1005A000CA01611571058105910519F0EA15FB0570
:1005B00079F7A301920110E01F5FCA01B901A701F9
:1005C00096010E9447032115310541055105A1F708
:1005D000153008F44AC010E0A30192011F5FCA0160
:1005E000B901A70196010E94470321153105410574
:1005F0005105A1F71150812F90E0FC013196E80DD3
:10060000F91D0397880D991D20E030E0AC0192910F
:10061000D901AF5FBE4F9C932F5F3F4FE417F507A3
:10062000B1F710920F011092110110921201109265
:100630001301109214011092100180916F008062DA
:1006400080936F0080916F00816080936F00809134
:10065000810081608093810059CF93E090930001E5
:10066000F401832D11928A95E9F783E090E0C5CFDC
:100670008FEF8093000184CFF1E0F093000180CFF1
:10068000209200017DCF93E09093000179CFA1E209
:100690001A2EAA1BBB1BFD010DC0AA1FBB1FEE1FFC
:1006A000FF1FA217B307E407F50720F0A21BB30B47
:1006B000E40BF50B661F771F881F991F1A9469F7C3
:1006C00060957095809590959B01AC01BD01CF011F
:1006D0000895EE0FFF1F0590F491E02D09940E94FC
:1006E00083030C9464040E945D0458F00E94560435
:1006F00040F029F45F3F29F00C944D0451110C9403
:1007000098040C9453040E94750468F39923B1F380
:10071000552391F3951B550BBB27AA276217730727
:10072000840738F09F5F5F4F220F331F441FAA1FBB
:10073000A9F335D00E2E3AF0E0E832D09150504077
:10074000E695001CCAF72BD0FE2F29D0660F771F25
:10075000881FBB1F261737074807AB07B0E809F00B
:10076000BB0B802DBF01FF2793585F4F3AF09E3F90
:10077000510578F00C944D040C9498045F3FE4F319
:10078000983ED4F3869577956795B795F7959F5FD3
:10079000C9F7880F911D9695879597F90895E1E01F
:1007A000660F771F881FBB1F621773078407BA077E
:1007B00020F0621B730B840BBA0BEE1F88F7E095D9
:1007C00008950E947D0488F09F5798F0B92F9927CB
:1007D000B751B0F0E1F0660F771F881F991F1AF02C
:1007E000BA95C9F714C0B13091F00E949704B1E0F6
:1007F00008950C949704672F782F8827B85F39F0F5
:10080000B93FCCF3869577956795B395D9F73EF4C4
:1008100090958095709561957F4F8F4F9F4F08956C
:10082000E89409C097FB3EF490958095709561958A
:100830007F4F8F4F9F4F9923A9F0F92F96E9BB2740
:100840009395F695879577956795B795F111F8CFBC
:10085000FAF4BB0F11F460FF1BC06F5F7F4F8F4F27
:100860009F4F16C0882311F096E911C0772321F01D
:100870009EE8872F762F05C0662371F096E8862FB5
:1008800070E060E02AF09A95660F771F881FDAF70C
:10089000880F9695879597F9089597F99F6780E84F
:1008A00070E060E008959FEF80EC089500240A94C2
:1008B0001616170618060906089500240A9412163B
:1008C0001306140605060895092E0394000C11F46E
:1008D000882352F0BB0F40F4BF2B11F460FF04C01B
:1008E0006F5F7F4F8F4F9F4F089557FD9058440F74
:1008F000551F59F05F3F71F04795880F97FB991F7F
:1009000061F09F3F79F0879508951216130614063B
:10091000551FF2CF4695F1DF08C0161617061806C8
:10092000991FF1CF86957105610508940895E894A3
:10093000BB2766277727CB0197F90895F894FFCF57
:0E094000FF08080808626567696E0A0D00006E
:00000001FF
